:10000000F6C02AC10FC10EC10DC10CC10BC10AC17E
:1000100009C108C107C106C105C104C103C102C1AC
:1000200001C100C1FFC0FEC0FDC0EDC408C510C5C0
:1000300021C52BC540C555C56EC509022200010169
:100040000080FA09040000010301010009210101F7
:100050000001223F000705810308000A1201100178
:1000600000000008A3A3801500010102000126037F
:1000700056006900730074006100380030002000F1
:1000800043006F006E00740072006F006C006C0023
:1000900065007200160341006E00670065006C0089
:1000A0005000750070007000790004030904050118
:1000B0000906A101050719E029E7150025017501C9
:1000C000950881029501750881039505750105085C
:1000D000190129059102950175039103950675088B
:1000E000150025650507190029658100C000004A33
:1000F00000000000004F00510000285052002B2942
:100100004C000000000049004B004E2A0000000097
:1001100000000000000000000000440000433A3BE3
:100120003C3D3E3F404142720000000000000000A4
:1001300000000000000000000000000000000000BF
:100140000000000000000000000000000071686B6B
:10015000006C6E0069006D00007300450000000037
:1001600000006A0000006F00000000007000004AFC
:1001700000000000004F00510000285052002B29C1
:100180004C00000000B049004B004E2A002C1E34E9
:1001900020212224342627252E362D3738271E1FCE
:1001A000202122232425263333362E3738131415E5
:1001B000161718191A1B1C1D2F31304D001F04056E
:1001C000060708090A0B0C0D0E0F10111213141557
:1001D000161718191A1B1C1D2F2D30350035040554
:1001E000060708090A0B0C0D0E0F1011120011243E
:1001F0001FBECFE5D1E0DEBFCDBF10E0A0E6B0E08E
:10020000E2E1FEE002C005900D92A439B107D9F7F2
:1002100020E0A4E9B0E001C01D92A33EB207E1F7DF
:1002200018D5F5C5EDCEA82FB92F80E090E041E0BC
:1002300050EA609530E009C02D9182279795879507
:1002400010F084279527305EC8F36F5FA8F30895F8
:10025000EADF8D939D930895CF93CFB7CF93C39546
:10026000839BE9F7839B09C0839B07C0839B05C0E1
:10027000839B03C0839B01C0A3C0DF93C091C600D2
:10028000DD27C353DF4F839B02C0DF91EBCF2F935A
:100290000F931F9300B32FEF03FB20F94F933F936E
:1002A00010B34FEF012703FB21F93BE031C04E7F34
:1002B000012F10B3216028C0102F4D7F2260000055
:1002C00000B329C04B7F2460012F000010B32BC066
:1002D00010B3477F28602AC04F7E00B320612CC036
:1002E0004F7D10B320622FC04F7B00B3206432C01B
:1002F000422700B349934FEF0000102713FB20F96A
:1003000010B31C70C9F1297F91F2012703FB21F979
:1003100000B3237F89F2315058F1102713FB22F9E3
:1003200010B3277E79F2012703FB23F92F7C81F29A
:1003300000B3102713FB24F92F7971F200C010B31A
:10034000012703FB25F92F7359F200C000B31027D2
:1003500013FB26F9223040F200C010B3012703FB43
:1003600027F9243028F64F77206810B30000F9CF22
:1003700010E41ABF002719C03B503195C31BD04071
:1003800010E41ABF0881033CF9F00B34E9F0209126
:10039000C4001981110F1213EDCF4A81441F093691
:1003A00041F10D3211F0013E29F70093CB003F914E
:1003B0004F911F910F912F91DF91CAB7C6FD4FCF7B
:1003C000CF91CFBFCF9118952091CB00222379F305
:1003D0001091C900112369F534306AF13093C900D6
:1003E0002093C5001091C6003BE0311B3093C6003E
:1003F00022C00091C9000130E4F40AE54F7049F4CD
:100400003091610034FD19C000936100CDEAD0E065
:1004100018C03091B80034FD10C00093B800C9EB8B
:10042000D0E00FC02795A8F45150A9F4220F000086
:10043000F9CF4AE503C042ED01C0432FC4E1D0E04B
:1004400032E011B31C60939A11BB02B320E41CE0AC
:100450005F93012756E002BB279520F4515021F409
:10046000220FF9CF012756E000003B5A02BBD0F221
:10047000279528F4515029F4220F0000F9CF0127C5
:1004800056E0279502BB20F4515021F4220FF9CFFA
:10049000012756E02991332302BB21F6037F1091F7
:1004A000CA00110FC651D04002BB11F01093C40016
:1004B00010E41ABF086011B3137F402F437F5F9190
:1004C00000C000C002BB11BB42BB71CFCF93C62F8F
:1004D0002091B80024FF0BC03091B90028E82327F1
:1004E0002093B900FC01AAEBB0E08C2F04C02AE5F0
:1004F0002093B800F7CF91919D938150E1F76C2F35
:100500008AEB90E0A5DECC5FC093B800CF91089550
:10051000CF93DF936091C900635067FDC3C08091A2
:10052000C600CCE0D0E0C81BD109C353DF4F809197
:10053000C5008D3209F0A5C0683009F0B1C083EC68
:100540008093AD008AE580936100109294008881C9
:10055000807631F0CE01EBD38F3F09F481C087C0A4
:100560009A811092B6008981811106C01092B7005D
:1005700026EB30E082E06FC0853019F49093CA001A
:1005800067C0863009F04EC08B81813041F48CE524
:1005900090E09093C8008093C70082E13FC0823012
:1005A00041F48AE390E09093C8008093C70082E210
:1005B00035C08330F1F4911108C08AEA90E090933D
:1005C000C8008093C70084E029C0913041F484E9D9
:1005D00090E09093C8008093C70086E11FC09230DE
:1005E000E1F48EE690E09093C8008093C70086E225
:1005F00015C0813241F48CE490E09093C800809360
:10060000C70089E00BC0823241F48EEA90E09093FB
:10061000C8008093C7008FE301C080E090E490930E
:10062000940025C0883069F0893019F49093CC008B
:100630000FC08A3049F08B3059F48BE48093B900B5
:1006400007C02CEC30E002C026EB30E081E003C0B4
:1006500026EB30E080E03093C8002093C70007C04D
:10066000988197FD8E8190E89093940007C09F81B8
:10067000911104C09E81981708F4892F809360001F
:100680000FC08091940087FF0BC0CE0190D38F3FA5
:1006900021F48EE18093610003C08111109260000B
:1006A0001092C9008091610084FF4BC0809160006E
:1006B0008F3F09F446C0C82F893008F0C8E08C1B72
:1006C000809360009091AD0088E889278093AD0009
:1006D000CC2359F18091C7009091C80020919400DB
:1006E00026FF12C0ADEAB0E02C2FAC014D5A5040AD
:1006F000FA01EA0FFB1FE4911196EC931197215038
:1007000011962111F5CF08C0EEEAF0E0DC012C2FA4
:100710003D9131932150E1F701962FEF2C0F820F7D
:10072000911D9093C8008093C7006C2F8EEA90E0D3
:100730008FDDCC5FCC3019F08FEF80936000C093D9
:10074000610084E190B39C7031F48150D9F710922C
:10075000CA001092C400DF91CF91089585B78260DE
:1007600085BF8BB780648BBFE8EBF0E08BE48183BF
:100770008AE580830895882351F08091B80084FF32
:1007800006C068E085EA90E0A1DE81E0089580E09F
:1007900008958823D1F08091B80084FF16C0E5EA5F
:1007A000F0E0828181111282319680E0EB3AF80705
:1007B000C1F780919D00811102C01092A50068E0F0
:1007C00085EA90E083DE81E0089580E0089520913D
:1007D0009F009091A500222341F020919D002223AB
:1007E00011F0882339F0985F03C093FF03C098503D
:1007F0009093A5002091A2009091A500222341F0A2
:1008000020919D00222311F0882339F09F5F03C0BF
:1008100090FF03C091509093A5002091A10090916A
:10082000A500222321F091FD07C09E5F03C091FF28
:1008300003C092509093A5009091A000992351F08D
:1008400090919D00992311F08823E1F08091A500FB
:100850008C5F05C08091A50082FF03C08450809307
:10086000A5006F3F89F080919D00811108C0109212
:10087000A2001092A00010929F0010929E00109271
:10088000A10008956F3FD9F70895982F8FEF890F32
:100890008E3FB8F4E7EAF0E020E030E0819198176D
:1008A000A9F0811105C0F901EB55FF4F92830EC0ED
:1008B0002F5F3F4F2630310589F781E08093A700F5
:1008C00003C081E09F3F19F080E0089581E0089522
:1008D000813099F058F08230B9F08330F9F42091EA
:1008E0009900909198008091970014C020919C00ED
:1008F00090919B0080919A000DC02091A200909150
:10090000A00080919F0006C02091A10090919E00C0
:1009100080919D00222321F0959A03C080E090E011
:100920009598992311F0969A01C09698882311F012
:10093000949A0895949808955D9BFECF8CB908957C
:100940008DE489B912B888E98AB986E083B980E074
:10095000F3DF8AE0F1DF8DE0EFDF80E0EDCF17BA63
:1009600083EF81BB1092A5001092A6001092A70001
:100970001092A8001092A9001092AA001092AB0049
:100980001092AC009EE088E10FB6F894A89581BD66
:100990000FBE91BDE3DE8B9A8AEF90E0A895EFE65B
:1009A000F7E13197F1F700C000000197B9F78B9894
:1009B0007894C6CFEF92FF920F931F93CF93DF935C
:1009C0008C017B01EC018991B7DFCE01801B910B7B
:1009D000E816F906C0F780E0DF91CF911F910F91E3
:1009E000FF90EF90A9CFCF9390E08830910508F069
:1009F000CBC09C012B5E3F4F90919E00E62FF0E014
:100A00002F933F9308956B3040F06F3031F0911188
:100A100004C081E08093A10005C0992319F0E35B35
:100A2000FE4F02C0E353FE4FC4916F3009F0A6C0E1
:100A30009091A20081E089278093A20086C099232B
:100A400019F0E35AFE4F02C0E352FE4FC49196C024
:100A500081E08093A1006B3028F0911103C01092C7
:100A6000A10005C0992319F0E35DFE4FEFCFE355D8
:100A7000FE4FECCF81E08093A100992319F0E35C55
:100A8000FE4FE4CFE354FE4FE1CF1092A1006A3055
:100A900021F06C3011F06E3030F0911104C081E023
:100AA0008093A10005C0992319F0E35EFE4FCECFDD
:100AB000E356FE4FCBCF81E08093A1008FEF860FEE
:100AC0008B3010F4673029F4911103C01092A1000B
:100AD00005C0992319F0E35FFE4FB8CFE357FE4FEF
:100AE000B5CF1092A100992319F0E350FF4F02C037
:100AF000E358FE4FC4916C3029F481E0982790931D
:100B00009E0039C06830D1F590919D0081E0892721
:100B100080939D0033C01092A100992319F0E351F6
:100B2000FF4F02C0E359FE4FC491613031F4809110
:100B30009F00682760939F0008C0643041F4909143
:100B4000A00081E089278093A00081E015C08BEF91
:100B5000860F833020F06C3089F482E00AC0653063
:100B600019F41092960007C0663011F481E001C0BC
:100B700083E08093960080E0CFEF01C080E06C2F8F
:100B800026DE8C2FCF9181CE69E070E084E690E084
:100B900011DF80E0CF910895909195009817A1F012
:100BA000882349F06CE070E08EE690E003DF81E09E
:100BB0008093950008956FE070E08BE790E0FADE97
:100BC00084E086DE10929500089581FB222720F9AB
:100BD000982F9170990F920F990F82FB222720F97D
:100BE000920F990F83FB882780F9890F0895CF937F
:100BF000DF9386B39091A30080FD24C0911125C09E
:100C0000982F9695D1E09D27492F417050E0440FD1
:100C1000551F982F969596959D27292F217030E086
:100C2000240F351F220F83FBCC27C0F9CD27C20F1D
:100C300082958F70CADFD093A300682F8C2FDF912D
:100C4000CF91D1CE91111092A30080E0DF91CF918E
:100C50000895CF93DF931F92CDB7DEB780DE67E0B4
:100C600070E08BE890E0A6DE812C912C00E010E093
:100C7000E12CF12CB12C80E1682E90E2792E20E459
:100C8000A22EA89545DC8091B80084FF04C0809115
:100C90009500811110C08091B80084FD06C080913C
:100CA0009500882311F00F5F1F4F093883E1180763
:100CB00024F080E071DF00E010E064018FEFC81ADB
:100CC000D80A80E1881687E2980639F4198261E033
:100CD000CE010196FBDBC12CD12C8091950088239D
:100CE00089F080919600F4DD82DF45DD882311F0E4
:100CF000BB24B3948B2D4DDD811102C04601C1CFC1
:100D0000B12CFCCF80E1E81687E2F80621F08FEFE6
:100D1000E81AF80AF3CF82B3862582BB82B387250F
:100D200082BB82B38A2582BBE12CF12CE7CFCF9323
:100D3000DF93EC0181E030DF88818076803299F5A5
:100D40008981833021F138F4813061F0823059F5A6
:100D500084EA90E022C08A30B1F08B30E1F0893033
:100D600011F508C085EA90E09093C8008093C70011
:100D700088E01AC081E02E813F812130310509F0E1
:100D800080E0819511C08B818093A4000CC08B8181
:100D90008093630008C083E690E09093C80080933E
:100DA000C70081E001C080E0DF91CF910895FC0190
:100DB000808190916200891741F180936200809157
:100DC0006200817080939C008091620086958170A2
:100DD00080939B008091620082FB882780F980933A
:100DE0009A008091620083FB882780F980939900A4
:100DF000809162008295817080939800809162005A
:100E000085FB882780F98093970081E00895F89406
:020E1000FFCF12
:100E1200FF5AFF014E6F204B6579210D0A00436F87
:100E22006E6E6563746564210A0D00446973636FB5
:100E32006E6E6563746564210A0D00426F6F7421E2
:040E42000A0D000095
:00000001FF
